{
  "_format": "hh-sol-artifact-1",
  "contractName": "JazmeenFactory",
  "sourceName": "contracts/JazmeenFactory.sol",
  "abi": [
    {
      "inputs": [
        {
          "internalType": "address",
          "name": "_jazmeenDeployer",
          "type": "address"
        }
      ],
      "stateMutability": "nonpayable",
      "type": "constructor"
    },
    {
      "anonymous": false,
      "inputs": [
        {
          "indexed": true,
          "internalType": "address",
          "name": "creator",
          "type": "address"
        },
        {
          "indexed": false,
          "internalType": "address",
          "name": "tokenAddress",
          "type": "address"
        },
        {
          "indexed": false,
          "internalType": "string",
          "name": "name",
          "type": "string"
        },
        {
          "indexed": false,
          "internalType": "string",
          "name": "symbol",
          "type": "string"
        }
      ],
      "name": "TokenDeployed",
      "type": "event"
    },
    {
      "inputs": [
        {
          "internalType": "string",
          "name": "name",
          "type": "string"
        },
        {
          "internalType": "string",
          "name": "symbol",
          "type": "string"
        },
        {
          "internalType": "uint256",
          "name": "initialSupply",
          "type": "uint256"
        },
        {
          "internalType": "string",
          "name": "imageUrl",
          "type": "string"
        }
      ],
      "name": "deployToken",
      "outputs": [],
      "stateMutability": "nonpayable",
      "type": "function"
    },
    {
      "inputs": [],
      "name": "getTokens",
      "outputs": [
        {
          "components": [
            {
              "internalType": "address",
              "name": "tokenAddress",
              "type": "address"
            },
            {
              "internalType": "string",
              "name": "name",
              "type": "string"
            },
            {
              "internalType": "string",
              "name": "symbol",
              "type": "string"
            },
            {
              "internalType": "string",
              "name": "imageUrl",
              "type": "string"
            },
            {
              "internalType": "address",
              "name": "creator",
              "type": "address"
            }
          ],
          "internalType": "struct JazmeenFactory.TokenInfo[]",
          "name": "",
          "type": "tuple[]"
        }
      ],
      "stateMutability": "view",
      "type": "function"
    },
    {
      "inputs": [],
      "name": "jazmeenDeployer",
      "outputs": [
        {
          "internalType": "address",
          "name": "",
          "type": "address"
        }
      ],
      "stateMutability": "view",
      "type": "function"
    },
    {
      "inputs": [
        {
          "internalType": "uint256",
          "name": "",
          "type": "uint256"
        }
      ],
      "name": "tokens",
      "outputs": [
        {
          "internalType": "address",
          "name": "tokenAddress",
          "type": "address"
        },
        {
          "internalType": "string",
          "name": "name",
          "type": "string"
        },
        {
          "internalType": "string",
          "name": "symbol",
          "type": "string"
        },
        {
          "internalType": "string",
          "name": "imageUrl",
          "type": "string"
        },
        {
          "internalType": "address",
          "name": "creator",
          "type": "address"
        }
      ],
      "stateMutability": "view",
      "type": "function"
    }
  ],
  "bytecode": "0x60806040523480156200001157600080fd5b5060405162003577380380620035778339818101604052810190620000379190620000e8565b806000806101000a81548173ffffffffffffffffffffffffffffffffffffffff021916908373ffffffffffffffffffffffffffffffffffffffff160217905550506200011a565b600080fd5b600073ffffffffffffffffffffffffffffffffffffffff82169050919050565b6000620000b08262000083565b9050919050565b620000c281620000a3565b8114620000ce57600080fd5b50565b600081519050620000e281620000b7565b92915050565b6000602082840312156200010157620001006200007e565b5b60006200011184828501620000d1565b91505092915050565b61344d806200012a6000396000f3fe60806040523480156200001157600080fd5b5060043610620000525760003560e01c80634f64b2be14620000575780636ff4d03714620000915780639658a8e414620000b1578063aa6ca80814620000d3575b600080fd5b6200007560048036038101906200006f91906200087e565b620000f5565b604051620000889594939291906200098f565b60405180910390f35b620000af6004803603810190620000a9919062000b52565b6200032c565b005b620000bb62000522565b604051620000ca919062000c21565b60405180910390f35b620000dd62000546565b604051620000ec919062000dff565b60405180910390f35b600181815481106200010657600080fd5b90600052602060002090600502016000915090508060000160009054906101000a900473ffffffffffffffffffffffffffffffffffffffff1690806001018054620001519062000e52565b80601f01602080910402602001604051908101604052809291908181526020018280546200017f9062000e52565b8015620001d05780601f10620001a457610100808354040283529160200191620001d0565b820191906000526020600020905b815481529060010190602001808311620001b257829003601f168201915b505050505090806002018054620001e79062000e52565b80601f0160208091040260200160405190810160405280929190818152602001828054620002159062000e52565b8015620002665780601f106200023a5761010080835404028352916020019162000266565b820191906000526020600020905b8154815290600101906020018083116200024857829003601f168201915b5050505050908060030180546200027d9062000e52565b80601f0160208091040260200160405190810160405280929190818152602001828054620002ab9062000e52565b8015620002fc5780601f10620002d057610100808354040283529160200191620002fc565b820191906000526020600020905b815481529060010190602001808311620002de57829003601f168201915b5050505050908060040160009054906101000a900473ffffffffffffffffffffffffffffffffffffffff16905085565b60008484843385604051620003419062000821565b6200035195949392919062000e98565b604051809103906000f0801580156200036e573d6000803e3d6000fd5b50905060016040518060a001604052808373ffffffffffffffffffffffffffffffffffffffff1681526020018781526020018681526020018481526020013373ffffffffffffffffffffffffffffffffffffffff16815250908060018154018082558091505060019003906000526020600020906005020160009091909190915060008201518160000160006101000a81548173ffffffffffffffffffffffffffffffffffffffff021916908373ffffffffffffffffffffffffffffffffffffffff16021790555060208201518160010190816200044d9190620010dc565b506040820151816002019081620004659190620010dc565b5060608201518160030190816200047d9190620010dc565b5060808201518160040160006101000a81548173ffffffffffffffffffffffffffffffffffffffff021916908373ffffffffffffffffffffffffffffffffffffffff16021790555050503373ffffffffffffffffffffffffffffffffffffffff167f801b50b59a9c797b08c62fe4c8bee1aff31ff3246d488e359cedfc8e75ffd05f8287876040516200051393929190620011c3565b60405180910390a25050505050565b60008054906101000a900473ffffffffffffffffffffffffffffffffffffffff1681565b60606001805480602002602001604051908101604052809291908181526020016000905b828210156200081857838290600052602060002090600502016040518060a00160405290816000820160009054906101000a900473ffffffffffffffffffffffffffffffffffffffff1673ffffffffffffffffffffffffffffffffffffffff1673ffffffffffffffffffffffffffffffffffffffff168152602001600182018054620005f69062000e52565b80601f0160208091040260200160405190810160405280929190818152602001828054620006249062000e52565b8015620006755780601f10620006495761010080835404028352916020019162000675565b820191906000526020600020905b8154815290600101906020018083116200065757829003601f168201915b50505050508152602001600282018054620006909062000e52565b80601f0160208091040260200160405190810160405280929190818152602001828054620006be9062000e52565b80156200070f5780601f10620006e3576101008083540402835291602001916200070f565b820191906000526020600020905b815481529060010190602001808311620006f157829003601f168201915b505050505081526020016003820180546200072a9062000e52565b80601f0160208091040260200160405190810160405280929190818152602001828054620007589062000e52565b8015620007a95780601f106200077d57610100808354040283529160200191620007a9565b820191906000526020600020905b8154815290600101906020018083116200078b57829003601f168201915b505050505081526020016004820160009054906101000a900473ffffffffffffffffffffffffffffffffffffffff1673ffffffffffffffffffffffffffffffffffffffff1673ffffffffffffffffffffffffffffffffffffffff1681525050815260200190600101906200056a565b50505050905090565b612209806200120f83390190565b6000604051905090565b600080fd5b600080fd5b6000819050919050565b620008588162000843565b81146200086457600080fd5b50565b60008135905062000878816200084d565b92915050565b60006020828403121562000897576200089662000839565b5b6000620008a78482850162000867565b91505092915050565b600073ffffffffffffffffffffffffffffffffffffffff82169050919050565b6000620008dd82620008b0565b9050919050565b620008ef81620008d0565b82525050565b600081519050919050565b600082825260208201905092915050565b60005b838110156200093157808201518184015260208101905062000914565b60008484015250505050565b6000601f19601f8301169050919050565b60006200095b82620008f5565b62000967818562000900565b93506200097981856020860162000911565b62000984816200093d565b840191505092915050565b600060a082019050620009a66000830188620008e4565b8181036020830152620009ba81876200094e565b90508181036040830152620009d081866200094e565b90508181036060830152620009e681856200094e565b9050620009f76080830184620008e4565b9695505050505050565b600080fd5b600080fd5b7f4e487b7100000000000000000000000000000000000000000000000000000000600052604160045260246000fd5b62000a45826200093d565b810181811067ffffffffffffffff8211171562000a675762000a6662000a0b565b5b80604052505050565b600062000a7c6200082f565b905062000a8a828262000a3a565b919050565b600067ffffffffffffffff82111562000aad5762000aac62000a0b565b5b62000ab8826200093d565b9050602081019050919050565b82818337600083830152505050565b600062000aeb62000ae58462000a8f565b62000a70565b90508281526020810184848401111562000b0a5762000b0962000a06565b5b62000b1784828562000ac5565b509392505050565b600082601f83011262000b375762000b3662000a01565b5b813562000b4984826020860162000ad4565b91505092915050565b6000806000806080858703121562000b6f5762000b6e62000839565b5b600085013567ffffffffffffffff81111562000b905762000b8f6200083e565b5b62000b9e8782880162000b1f565b945050602085013567ffffffffffffffff81111562000bc25762000bc16200083e565b5b62000bd08782880162000b1f565b935050604062000be38782880162000867565b925050606085013567ffffffffffffffff81111562000c075762000c066200083e565b5b62000c158782880162000b1f565b91505092959194509250565b600060208201905062000c386000830184620008e4565b92915050565b600081519050919050565b600082825260208201905092915050565b6000819050602082019050919050565b62000c7581620008d0565b82525050565b600082825260208201905092915050565b600062000c9982620008f5565b62000ca5818562000c7b565b935062000cb781856020860162000911565b62000cc2816200093d565b840191505092915050565b600060a08301600083015162000ce7600086018262000c6a565b506020830151848203602086015262000d01828262000c8c565b9150506040830151848203604086015262000d1d828262000c8c565b9150506060830151848203606086015262000d39828262000c8c565b915050608083015162000d50608086018262000c6a565b508091505092915050565b600062000d69838362000ccd565b905092915050565b6000602082019050919050565b600062000d8b8262000c3e565b62000d97818562000c49565b93508360208202850162000dab8562000c5a565b8060005b8581101562000ded578484038952815162000dcb858262000d5b565b945062000dd88362000d71565b925060208a0199505060018101905062000daf565b50829750879550505050505092915050565b6000602082019050818103600083015262000e1b818462000d7e565b905092915050565b7f4e487b7100000000000000000000000000000000000000000000000000000000600052602260045260246000fd5b6000600282049050600182168062000e6b57607f821691505b60208210810362000e815762000e8062000e23565b5b50919050565b62000e928162000843565b82525050565b600060a082019050818103600083015262000eb481886200094e565b9050818103602083015262000eca81876200094e565b905062000edb604083018662000e87565b62000eea6060830185620008e4565b818103608083015262000efe81846200094e565b90509695505050505050565b60008190508160005260206000209050919050565b60006020601f8301049050919050565b600082821b905092915050565b60006008830262000f6e7fffffffffffffffffffffffffffffffffffffffffffffffffffffffffffffffff8262000f2f565b62000f7a868362000f2f565b95508019841693508086168417925050509392505050565b6000819050919050565b600062000fbd62000fb762000fb18462000843565b62000f92565b62000843565b9050919050565b6000819050919050565b62000fd98362000f9c565b62000ff162000fe88262000fc4565b84845462000f3c565b825550505050565b600090565b6200100862000ff9565b6200101581848462000fce565b505050565b5b818110156200103d576200103160008262000ffe565b6001810190506200101b565b5050565b601f8211156200108c57620010568162000f0a565b620010618462000f1f565b8101602085101562001071578190505b62001089620010808562000f1f565b8301826200101a565b50505b505050565b600082821c905092915050565b6000620010b16000198460080262001091565b1980831691505092915050565b6000620010cc83836200109e565b9150826002028217905092915050565b620010e782620008f5565b67ffffffffffffffff81111562001103576200110262000a0b565b5b6200110f825462000e52565b6200111c82828562001041565b600060209050601f8311600181146200115457600084156200113f578287015190505b6200114b8582620010be565b865550620011bb565b601f198416620011648662000f0a565b60005b828110156200118e5784890151825560018201915060208501945060208101905062001167565b86831015620011ae5784890151620011aa601f8916826200109e565b8355505b6001600288020188555050505b505050505050565b6000606082019050620011da6000830186620008e4565b8181036020830152620011ee81856200094e565b905081810360408301526200120481846200094e565b905094935050505056fe60806040523480156200001157600080fd5b5060405162002209380380620022098339818101604052810190620000379190620005f2565b848481600390816200004a919062000918565b5080600490816200005c919062000918565b50505081600560006101000a81548173ffffffffffffffffffffffffffffffffffffffff021916908373ffffffffffffffffffffffffffffffffffffffff1602179055508060069081620000b1919062000918565b50620000ee82620000c7620000f960201b60201c565b600a620000d5919062000b8f565b85620000e2919062000be0565b6200010260201b60201c565b505050505062000cff565b60006012905090565b600073ffffffffffffffffffffffffffffffffffffffff168273ffffffffffffffffffffffffffffffffffffffff1603620001775760006040517fec442f050000000000000000000000000000000000000000000000000000000081526004016200016e919062000c3c565b60405180910390fd5b6200018b600083836200018f60201b60201c565b5050565b600073ffffffffffffffffffffffffffffffffffffffff168373ffffffffffffffffffffffffffffffffffffffff1603620001e5578060026000828254620001d8919062000c59565b92505081905550620002bb565b60008060008573ffffffffffffffffffffffffffffffffffffffff1673ffffffffffffffffffffffffffffffffffffffff1681526020019081526020016000205490508181101562000274578381836040517fe450d38c0000000000000000000000000000000000000000000000000000000081526004016200026b9392919062000ca5565b60405180910390fd5b8181036000808673ffffffffffffffffffffffffffffffffffffffff1673ffffffffffffffffffffffffffffffffffffffff16815260200190815260200160002081905550505b600073ffffffffffffffffffffffffffffffffffffffff168273ffffffffffffffffffffffffffffffffffffffff160362000306578060026000828254039250508190555062000353565b806000808473ffffffffffffffffffffffffffffffffffffffff1673ffffffffffffffffffffffffffffffffffffffff168152602001908152602001600020600082825401925050819055505b8173ffffffffffffffffffffffffffffffffffffffff168373ffffffffffffffffffffffffffffffffffffffff167fddf252ad1be2c89b69c2b068fc378daa952ba7f163c4a11628f55a4df523b3ef83604051620003b2919062000ce2565b60405180910390a3505050565b6000604051905090565b600080fd5b600080fd5b600080fd5b600080fd5b6000601f19601f8301169050919050565b7f4e487b7100000000000000000000000000000000000000000000000000000000600052604160045260246000fd5b6200042882620003dd565b810181811067ffffffffffffffff821117156200044a5762000449620003ee565b5b80604052505050565b60006200045f620003bf565b90506200046d82826200041d565b919050565b600067ffffffffffffffff82111562000490576200048f620003ee565b5b6200049b82620003dd565b9050602081019050919050565b60005b83811015620004c8578082015181840152602081019050620004ab565b60008484015250505050565b6000620004eb620004e58462000472565b62000453565b9050828152602081018484840111156200050a5762000509620003d8565b5b62000517848285620004a8565b509392505050565b600082601f830112620005375762000536620003d3565b5b815162000549848260208601620004d4565b91505092915050565b6000819050919050565b620005678162000552565b81146200057357600080fd5b50565b60008151905062000587816200055c565b92915050565b600073ffffffffffffffffffffffffffffffffffffffff82169050919050565b6000620005ba826200058d565b9050919050565b620005cc81620005ad565b8114620005d857600080fd5b50565b600081519050620005ec81620005c1565b92915050565b600080600080600060a08688031215620006115762000610620003c9565b5b600086015167ffffffffffffffff811115620006325762000631620003ce565b5b62000640888289016200051f565b955050602086015167ffffffffffffffff811115620006645762000663620003ce565b5b62000672888289016200051f565b9450506040620006858882890162000576565b93505060606200069888828901620005db565b925050608086015167ffffffffffffffff811115620006bc57620006bb620003ce565b5b620006ca888289016200051f565b9150509295509295909350565b600081519050919050565b7f4e487b7100000000000000000000000000000000000000000000000000000000600052602260045260246000fd5b600060028204905060018216806200072a57607f821691505b60208210810362000740576200073f620006e2565b5b50919050565b60008190508160005260206000209050919050565b60006020601f8301049050919050565b600082821b905092915050565b600060088302620007aa7fffffffffffffffffffffffffffffffffffffffffffffffffffffffffffffffff826200076b565b620007b686836200076b565b95508019841693508086168417925050509392505050565b6000819050919050565b6000620007f9620007f3620007ed8462000552565b620007ce565b62000552565b9050919050565b6000819050919050565b6200081583620007d8565b6200082d620008248262000800565b84845462000778565b825550505050565b600090565b6200084462000835565b620008518184846200080a565b505050565b5b8181101562000879576200086d6000826200083a565b60018101905062000857565b5050565b601f821115620008c857620008928162000746565b6200089d846200075b565b81016020851015620008ad578190505b620008c5620008bc856200075b565b83018262000856565b50505b505050565b600082821c905092915050565b6000620008ed60001984600802620008cd565b1980831691505092915050565b6000620009088383620008da565b9150826002028217905092915050565b6200092382620006d7565b67ffffffffffffffff8111156200093f576200093e620003ee565b5b6200094b825462000711565b620009588282856200087d565b600060209050601f8311600181146200099057600084156200097b578287015190505b620009878582620008fa565b865550620009f7565b601f198416620009a08662000746565b60005b82811015620009ca57848901518255600182019150602085019450602081019050620009a3565b86831015620009ea5784890151620009e6601f891682620008da565b8355505b6001600288020188555050505b505050505050565b7f4e487b7100000000000000000000000000000000000000000000000000000000600052601160045260246000fd5b60008160011c9050919050565b6000808291508390505b600185111562000a8d5780860481111562000a655762000a64620009ff565b5b600185161562000a755780820291505b808102905062000a858562000a2e565b945062000a45565b94509492505050565b60008262000aa8576001905062000b7b565b8162000ab8576000905062000b7b565b816001811462000ad1576002811462000adc5762000b12565b600191505062000b7b565b60ff84111562000af15762000af0620009ff565b5b8360020a91508482111562000b0b5762000b0a620009ff565b5b5062000b7b565b5060208310610133831016604e8410600b841016171562000b4c5782820a90508381111562000b465762000b45620009ff565b5b62000b7b565b62000b5b848484600162000a3b565b9250905081840481111562000b755762000b74620009ff565b5b81810290505b9392505050565b600060ff82169050919050565b600062000b9c8262000552565b915062000ba98362000b82565b925062000bd87fffffffffffffffffffffffffffffffffffffffffffffffffffffffffffffffff848462000a96565b905092915050565b600062000bed8262000552565b915062000bfa8362000552565b925082820262000c0a8162000552565b9150828204841483151762000c245762000c23620009ff565b5b5092915050565b62000c3681620005ad565b82525050565b600060208201905062000c53600083018462000c2b565b92915050565b600062000c668262000552565b915062000c738362000552565b925082820190508082111562000c8e5762000c8d620009ff565b5b92915050565b62000c9f8162000552565b82525050565b600060608201905062000cbc600083018662000c2b565b62000ccb602083018562000c94565b62000cda604083018462000c94565b949350505050565b600060208201905062000cf9600083018462000c94565b92915050565b6114fa8062000d0f6000396000f3fe608060405234801561001057600080fd5b50600436106100b45760003560e01c80634aeb5c09116100715780634aeb5c091461019157806370a08231146101af578063918b5be1146101df57806395d89b41146101fb578063a9059cbb14610219578063dd62ed3e14610249576100b4565b806302d05d3f146100b957806306fdde03146100d7578063095ea7b3146100f557806318160ddd1461012557806323b872dd14610143578063313ce56714610173575b600080fd5b6100c1610279565b6040516100ce9190610c62565b60405180910390f35b6100df61029f565b6040516100ec9190610d0d565b60405180910390f35b61010f600480360381019061010a9190610da5565b610331565b60405161011c9190610e00565b60405180910390f35b61012d610354565b60405161013a9190610e2a565b60405180910390f35b61015d60048036038101906101589190610e45565b61035e565b60405161016a9190610e00565b60405180910390f35b61017b61038d565b6040516101889190610eb4565b60405180910390f35b610199610396565b6040516101a69190610d0d565b60405180910390f35b6101c960048036038101906101c49190610ecf565b610424565b6040516101d69190610e2a565b60405180910390f35b6101f960048036038101906101f49190611031565b61046c565b005b610203610546565b6040516102109190610d0d565b60405180910390f35b610233600480360381019061022e9190610da5565b6105d8565b6040516102409190610e00565b60405180910390f35b610263600480360381019061025e919061107a565b6105fb565b6040516102709190610e2a565b60405180910390f35b600560009054906101000a900473ffffffffffffffffffffffffffffffffffffffff1681565b6060600380546102ae906110e9565b80601f01602080910402602001604051908101604052809291908181526020018280546102da906110e9565b80156103275780601f106102fc57610100808354040283529160200191610327565b820191906000526020600020905b81548152906001019060200180831161030a57829003601f168201915b5050505050905090565b60008061033c610682565b905061034981858561068a565b600191505092915050565b6000600254905090565b600080610369610682565b905061037685828561069c565b610381858585610731565b60019150509392505050565b60006012905090565b600680546103a3906110e9565b80601f01602080910402602001604051908101604052809291908181526020018280546103cf906110e9565b801561041c5780601f106103f15761010080835404028352916020019161041c565b820191906000526020600020905b8154815290600101906020018083116103ff57829003601f168201915b505050505081565b60008060008373ffffffffffffffffffffffffffffffffffffffff1673ffffffffffffffffffffffffffffffffffffffff168152602001908152602001600020549050919050565b600560009054906101000a900473ffffffffffffffffffffffffffffffffffffffff1673ffffffffffffffffffffffffffffffffffffffff163373ffffffffffffffffffffffffffffffffffffffff16146104fc576040517f08c379a00000000000000000000000000000000000000000000000000000000081526004016104f39061118c565b60405180910390fd5b806006908161050b9190611358565b507f1c306e70c05992619e2128ad1ef88df75f36c9476282e59f51401b2abaa42e4e8160405161053b9190610d0d565b60405180910390a150565b606060048054610555906110e9565b80601f0160208091040260200160405190810160405280929190818152602001828054610581906110e9565b80156105ce5780601f106105a3576101008083540402835291602001916105ce565b820191906000526020600020905b8154815290600101906020018083116105b157829003601f168201915b5050505050905090565b6000806105e3610682565b90506105f0818585610731565b600191505092915050565b6000600160008473ffffffffffffffffffffffffffffffffffffffff1673ffffffffffffffffffffffffffffffffffffffff16815260200190815260200160002060008373ffffffffffffffffffffffffffffffffffffffff1673ffffffffffffffffffffffffffffffffffffffff16815260200190815260200160002054905092915050565b600033905090565b6106978383836001610825565b505050565b60006106a884846105fb565b90507fffffffffffffffffffffffffffffffffffffffffffffffffffffffffffffffff81101561072b578181101561071b578281836040517ffb8f41b20000000000000000000000000000000000000000000000000000000081526004016107129392919061142a565b60405180910390fd5b61072a84848484036000610825565b5b50505050565b600073ffffffffffffffffffffffffffffffffffffffff168373ffffffffffffffffffffffffffffffffffffffff16036107a35760006040517f96c6fd1e00000000000000000000000000000000000000000000000000000000815260040161079a9190610c62565b60405180910390fd5b600073ffffffffffffffffffffffffffffffffffffffff168273ffffffffffffffffffffffffffffffffffffffff16036108155760006040517fec442f0500000000000000000000000000000000000000000000000000000000815260040161080c9190610c62565b60405180910390fd5b6108208383836109fc565b505050565b600073ffffffffffffffffffffffffffffffffffffffff168473ffffffffffffffffffffffffffffffffffffffff16036108975760006040517fe602df0500000000000000000000000000000000000000000000000000000000815260040161088e9190610c62565b60405180910390fd5b600073ffffffffffffffffffffffffffffffffffffffff168373ffffffffffffffffffffffffffffffffffffffff16036109095760006040517f94280d620000000000000000000000000000000000000000000000000000000081526004016109009190610c62565b60405180910390fd5b81600160008673ffffffffffffffffffffffffffffffffffffffff1673ffffffffffffffffffffffffffffffffffffffff16815260200190815260200160002060008573ffffffffffffffffffffffffffffffffffffffff1673ffffffffffffffffffffffffffffffffffffffff1681526020019081526020016000208190555080156109f6578273ffffffffffffffffffffffffffffffffffffffff168473ffffffffffffffffffffffffffffffffffffffff167f8c5be1e5ebec7d5bd14f71427d1e84f3dd0314c0f7b2291e5b200ac8c7c3b925846040516109ed9190610e2a565b60405180910390a35b50505050565b600073ffffffffffffffffffffffffffffffffffffffff168373ffffffffffffffffffffffffffffffffffffffff1603610a4e578060026000828254610a429190611490565b92505081905550610b21565b60008060008573ffffffffffffffffffffffffffffffffffffffff1673ffffffffffffffffffffffffffffffffffffffff16815260200190815260200160002054905081811015610ada578381836040517fe450d38c000000000000000000000000000000000000000000000000000000008152600401610ad19392919061142a565b60405180910390fd5b8181036000808673ffffffffffffffffffffffffffffffffffffffff1673ffffffffffffffffffffffffffffffffffffffff16815260200190815260200160002081905550505b600073ffffffffffffffffffffffffffffffffffffffff168273ffffffffffffffffffffffffffffffffffffffff1603610b6a5780600260008282540392505081905550610bb7565b806000808473ffffffffffffffffffffffffffffffffffffffff1673ffffffffffffffffffffffffffffffffffffffff168152602001908152602001600020600082825401925050819055505b8173ffffffffffffffffffffffffffffffffffffffff168373ffffffffffffffffffffffffffffffffffffffff167fddf252ad1be2c89b69c2b068fc378daa952ba7f163c4a11628f55a4df523b3ef83604051610c149190610e2a565b60405180910390a3505050565b600073ffffffffffffffffffffffffffffffffffffffff82169050919050565b6000610c4c82610c21565b9050919050565b610c5c81610c41565b82525050565b6000602082019050610c776000830184610c53565b92915050565b600081519050919050565b600082825260208201905092915050565b60005b83811015610cb7578082015181840152602081019050610c9c565b60008484015250505050565b6000601f19601f8301169050919050565b6000610cdf82610c7d565b610ce98185610c88565b9350610cf9818560208601610c99565b610d0281610cc3565b840191505092915050565b60006020820190508181036000830152610d278184610cd4565b905092915050565b6000604051905090565b600080fd5b600080fd5b610d4c81610c41565b8114610d5757600080fd5b50565b600081359050610d6981610d43565b92915050565b6000819050919050565b610d8281610d6f565b8114610d8d57600080fd5b50565b600081359050610d9f81610d79565b92915050565b60008060408385031215610dbc57610dbb610d39565b5b6000610dca85828601610d5a565b9250506020610ddb85828601610d90565b9150509250929050565b60008115159050919050565b610dfa81610de5565b82525050565b6000602082019050610e156000830184610df1565b92915050565b610e2481610d6f565b82525050565b6000602082019050610e3f6000830184610e1b565b92915050565b600080600060608486031215610e5e57610e5d610d39565b5b6000610e6c86828701610d5a565b9350506020610e7d86828701610d5a565b9250506040610e8e86828701610d90565b9150509250925092565b600060ff82169050919050565b610eae81610e98565b82525050565b6000602082019050610ec96000830184610ea5565b92915050565b600060208284031215610ee557610ee4610d39565b5b6000610ef384828501610d5a565b91505092915050565b600080fd5b600080fd5b7f4e487b7100000000000000000000000000000000000000000000000000000000600052604160045260246000fd5b610f3e82610cc3565b810181811067ffffffffffffffff82111715610f5d57610f5c610f06565b5b80604052505050565b6000610f70610d2f565b9050610f7c8282610f35565b919050565b600067ffffffffffffffff821115610f9c57610f9b610f06565b5b610fa582610cc3565b9050602081019050919050565b82818337600083830152505050565b6000610fd4610fcf84610f81565b610f66565b905082815260208101848484011115610ff057610fef610f01565b5b610ffb848285610fb2565b509392505050565b600082601f83011261101857611017610efc565b5b8135611028848260208601610fc1565b91505092915050565b60006020828403121561104757611046610d39565b5b600082013567ffffffffffffffff81111561106557611064610d3e565b5b61107184828501611003565b91505092915050565b6000806040838503121561109157611090610d39565b5b600061109f85828601610d5a565b92505060206110b085828601610d5a565b9150509250929050565b7f4e487b7100000000000000000000000000000000000000000000000000000000600052602260045260246000fd5b6000600282049050600182168061110157607f821691505b602082108103611114576111136110ba565b5b50919050565b7f4f6e6c79207468652063726561746f722063616e20757064617465206d65746160008201527f6461746100000000000000000000000000000000000000000000000000000000602082015250565b6000611176602483610c88565b91506111818261111a565b604082019050919050565b600060208201905081810360008301526111a581611169565b9050919050565b60008190508160005260206000209050919050565b60006020601f8301049050919050565b600082821b905092915050565b60006008830261120e7fffffffffffffffffffffffffffffffffffffffffffffffffffffffffffffffff826111d1565b61121886836111d1565b95508019841693508086168417925050509392505050565b6000819050919050565b600061125561125061124b84610d6f565b611230565b610d6f565b9050919050565b6000819050919050565b61126f8361123a565b61128361127b8261125c565b8484546111de565b825550505050565b600090565b61129861128b565b6112a3818484611266565b505050565b5b818110156112c7576112bc600082611290565b6001810190506112a9565b5050565b601f82111561130c576112dd816111ac565b6112e6846111c1565b810160208510156112f5578190505b611309611301856111c1565b8301826112a8565b50505b505050565b600082821c905092915050565b600061132f60001984600802611311565b1980831691505092915050565b6000611348838361131e565b9150826002028217905092915050565b61136182610c7d565b67ffffffffffffffff81111561137a57611379610f06565b5b61138482546110e9565b61138f8282856112cb565b600060209050601f8311600181146113c257600084156113b0578287015190505b6113ba858261133c565b865550611422565b601f1984166113d0866111ac565b60005b828110156113f8578489015182556001820191506020850194506020810190506113d3565b868310156114155784890151611411601f89168261131e565b8355505b6001600288020188555050505b505050505050565b600060608201905061143f6000830186610c53565b61144c6020830185610e1b565b6114596040830184610e1b565b949350505050565b7f4e487b7100000000000000000000000000000000000000000000000000000000600052601160045260246000fd5b600061149b82610d6f565b91506114a683610d6f565b92508282019050808211156114be576114bd611461565b5b9291505056fea26469706673582212209801eeac8d83189aecc1597e298248222e417cab21c6b56c9f61d26dc0ab60cb64736f6c63430008180033a2646970667358221220ce7f3ba5c8a9f876a40e34fd4a1f86e2a2ddd506cbd486e12b76c9755b27004a64736f6c63430008180033",
  "linkReferences": {},
  "deployedLinkReferences": {}
}